{"abi":[{"type":"constructor","inputs":[],"stateMutability":"nonpayable"},{"type":"function","name":"getNumber","inputs":[],"outputs":[{"name":"","type":"uint256","internalType":"uint256"}],"stateMutability":"view"},{"type":"function","name":"owner","inputs":[],"outputs":[{"name":"","type":"address","internalType":"address"}],"stateMutability":"view"},{"type":"function","name":"setNumber","inputs":[{"name":"_number","type":"uint256","internalType":"uint256"}],"outputs":[],"stateMutability":"nonpayable"},{"type":"event","name":"NumberUpdated","inputs":[{"name":"updater","type":"address","indexed":true,"internalType":"address"},{"name":"oldNumber","type":"uint256","indexed":false,"internalType":"uint256"},{"name":"newNumber","type":"uint256","indexed":false,"internalType":"uint256"}],"anonymous":false}],"bytecode":{"object":"0x6080604052348015600e575f5ffd5b503360015f6101000a81548173ffffffffffffffffffffffffffffffffffffffff021916908373ffffffffffffffffffffffffffffffffffffffff1602179055506104178061005c5f395ff3fe608060405234801561000f575f5ffd5b506004361061003f575f3560e01c80633fb5c1cb146100435780638da5cb5b1461005f578063f2c9ecd81461007d575b5f5ffd5b61005d6004803603810190610058919061022f565b61009b565b005b6100676101cb565b6040516100749190610299565b60405180910390f35b6100856101f0565b60405161009291906102c1565b60405180910390f35b60015f9054906101000a900473ffffffffffffffffffffffffffffffffffffffff1673ffffffffffffffffffffffffffffffffffffffff163373ffffffffffffffffffffffffffffffffffffffff161461012a576040517f08c379a000000000000000000000000000000000000000000000000000000000815260040161012190610334565b60405180910390fd5b5f810361016c576040517f08c379a00000000000000000000000000000000000000000000000000000000081526004016101639061039c565b60405180910390fd5b5f5f549050815f819055503373ffffffffffffffffffffffffffffffffffffffff167f4fa040b5873ce4d09fbd308afa1615910e551f6614874f5cce99ce160e37eff482846040516101bf9291906103ba565b60405180910390a25050565b60015f9054906101000a900473ffffffffffffffffffffffffffffffffffffffff1681565b5f5f54905090565b5f5ffd5b5f819050919050565b61020e816101fc565b8114610218575f5ffd5b50565b5f8135905061022981610205565b92915050565b5f60208284031215610244576102436101f8565b5b5f6102518482850161021b565b91505092915050565b5f73ffffffffffffffffffffffffffffffffffffffff82169050919050565b5f6102838261025a565b9050919050565b61029381610279565b82525050565b5f6020820190506102ac5f83018461028a565b92915050565b6102bb816101fc565b82525050565b5f6020820190506102d45f8301846102b2565b92915050565b5f82825260208201905092915050565b7f4f6e6c79206f776e65722063616e20736574206e756d626572000000000000005f82015250565b5f61031e6019836102da565b9150610329826102ea565b602082019050919050565b5f6020820190508181035f83015261034b81610312565b9050919050565b7f4e756d6265722063616e6e6f74206265207a65726f00000000000000000000005f82015250565b5f6103866015836102da565b915061039182610352565b602082019050919050565b5f6020820190508181035f8301526103b38161037a565b9050919050565b5f6040820190506103cd5f8301856102b2565b6103da60208301846102b2565b939250505056fea26469706673582212205641e99e13d5bfe05911565822e75c94c5143711a2146373f9dd8113ba407dee64736f6c63430008220033","linkReferences":{}},"methodIdentifiers":{"getNumber()":"f2c9ecd8","owner()":"8da5cb5b","setNumber(uint256)":"3fb5c1cb"},"id":0}